:100000000C9479010C94AA010C94AA010C94AA01F5
:100010000C94AA010C94AA010C94AA010C94AA01B4
:100020000C94AA010C94AA010C94AA010C94AA01A4
:100030000C94AA010C94AA010C94AA010C94AA0194
:100040000C94AA010C94AA010C94AA010C94AA0184
:100050000C94AA010C94AA010C94AA010C94F90620
:100060000C94AA010C946D070C9443070C94AA01FC
:100070000C94AA010C94AA010C94AA010C94AA0154
:100080000C94AA010C94AA010C94AA010C94AA0144
:100090000C94AA010C94AA010C94AA010C94AA0134
:1000A0000C94AA010C94AA010C94AA010C94AA0124
:1000B0000C94AA010C94AA010C94AA010C94AA0114
:1000C0000C94AA010C94AA010C94AA010C94AA0104
:1000D0000C94AA010C94AA010C94AA010C94AA01F4
:1000E0000C94AA0105020802F701FB0101023F027C
:1000F0000C02100216021A021E02240228022C020E
:100100003F02320236023A02C002C502CA02D402DB
:10011000DE025703E802F002F80202030C031603A2
:1001200025032F035703390343034D030C94CA02DD
:100130000C941E020C94A3070C942F030C94F80249
:100140000C940C030C94E8020C9460030C942802A9
:100150000C943F020C941A020C9424020C94D402C6
:100160000C9410020C943A020C9402030C94F701C4
:100170000C94F0020C9400040C9432020C94FB01D9
:100180000C942C020C9443030C9405020C94B903B8
:100190000C9439030C9416020C940C020C94160364
:1001A0000C9482030C944D030C94C0020C94010235
:1001B0000C9436020C945B040C9474030C94570357
:1001C0000C9408020C94DE020C94C5020C942503D6
:1001D000000020002300260029002C002F00320000
:1001E0000001000003010601090100000A0B0209D9
:1001F0000C0D0E08070304010000000000000000C1
:1002000000000000000000000000000000000000EE
:1002100000000000000012111000000000000000AB
:1002200000000000000000000000000000000000CE
:1002300000002200250028002B002E003100340091
:1002400002010000050108010B010000210024004B
:1002500027002A002D0030003300010100000401B6
:1002600007010A0105050505070508080808020237
:1002700002020A0A08080404040401010101010140
:1002800001010303030303030303040707070C0C23
:100290000C0C0C0C0C0C02020202060606060606EA
:1002A00006060B0B0B0B0B0B0B0B0102102020088F
:1002B00008102040102040800201020108040201C1
:1002C0000102040810204080804020100804020130
:1002D0008004020180402010080402010804020189
:1002E0000102040810204080010204081020408010
:1002F000A30711241FBECFEFD1E2DEBFCDBF00E0C8
:100300000CBF12E0A0E0B2E0EEEFFAE100E00BBFBC
:1003100002C007900D92AA31B107D9F723E0AAE1F4
:10032000B2E001C01D92AA35B207E1F711E0C9E7BA
:10033000D1E000E006C021970109802FFE010E9454
:10034000610DC837D10780E00807A9F70E948C0823
:100350000C947D0D0C94000090E0FC01E655FD4FDF
:100360002491FC01EC59FD4F8491882399F090E091
:10037000880F991FFC01E65BFD4FA591B491FC012C
:10038000E05DFD4F859194918FB7F894EC91E22B4D
:10039000EC938FBF0895863308F0865390917B00CD
:1003A000282F2870977F922B90937B008770806412
:1003B00080937C0080917A00806480937A008091A1
:1003C0007A0086FDFCCF809178002091790090E042
:1003D000922B089590E0FC013197E231F10508F08D
:1003E0004EC08827EE58FF4F8F4F0C94610D8091BF
:1003F00080008F7703C0809180008F7D8093800084
:10040000089580918000877FF9CF84B58F7702C0EF
:1004100084B58F7D84BD08958091B0008F7703C02F
:100420008091B0008F7D8093B000089580919000FE
:100430008F7707C0809190008F7D03C080919000DE
:10044000877F8093900008958091A0008F7707C0E8
:100450008091A0008F7D03C08091A000877F809352
:10046000A0000895809120018F7707C0809120011E
:100470008F7D03C080912001877F809320010895A4
:10048000CF93DF93282F30E0F901E651FE4F84919E
:10049000F901E655FD4FD491F901EC59FD4FC49196
:1004A000CC2391F081110E94EA01EC2FF0E0EE0FD5
:1004B000FF1FE053FE4FA591B491EC91ED2381E035
:1004C00090E021F480E002C080E090E0DF91CF91E5
:1004D00008951F93CF93DF93282F30E0F901E65161
:1004E000FE4F8491F901E655FD4FD491F901EC5985
:1004F000FD4FC491CC23C1F0162F81110E94EA0157
:10050000EC2FF0E0EE0FFF1FE05DFD4FA591B491E1
:100510009FB7F894111104C08C91D095D82302C0D4
:10052000EC91DE2BDC939FBFDF91CF911F9108955B
:100530001F93CF93DF93182FEB010E94AC012097FC
:1005400011F460E004C0CF3FD10539F461E0812FA0
:10055000DF91CF911F910C946902E12FF0E0E651F9
:10056000FE4FE4918E2F90E0FC013197E231F105CE
:1005700008F09DC08827EC57FF4F8F4F0C94610DFA
:1005800084B5806884BDC7BD97C084B5806284BDD2
:10059000C8BD92C080918000806880938000D09315
:1005A0008900C093880088C0809180008062809319
:1005B0008000D0938B00C0938A007EC08091800021
:1005C000886080938000D0938D00C0938C0074C0AD
:1005D0008091B00080688093B000C093B3006CC07D
:1005E0008091B00080628093B000C093B40064C07A
:1005F00080919000806880939000D0939900C09380
:1006000098005AC080919000806280939000D093AF
:100610009B00C0939A0050C08091900088608093A6
:100620009000D0939D00C0939C0046C08091A00094
:1006300080688093A0008091A0008F7B8093A000B1
:10064000D093A900C093A80037C08091A000806219
:100650008093A000D093AB00C093AA002DC08091DE
:10066000A00088608093A000D093AD00C093AC0040
:1006700023C080912001806880932001D0932901BC
:10068000C093280119C080912001806280932001CD
:10069000D0932B01C0932A010FC080912001886064
:1006A00080932001D0932D01C0932C0105C0C03848
:1006B000D1050CF04BCF45CFDF91CF911F9108951D
:1006C000FC01918D828D981761F0828DDF01A80F5A
:1006D000B11D5D968C91928D9F5F9F73928F90E07C
:1006E00008958FEF9FEF0895FC01918D828D9817EB
:1006F00031F0828DE80FF11D858D90E008958FEF28
:100700009FEF0895FC01918D228D892F90E0805CF0
:100710009F4F821B91098F739927089587E292E07A
:100720000E94820321E0892B09F420E0822F0895A2
:10073000FC01848DDF01A80FB11DA35ABF4F2C917E
:10074000848D90E001968F739927848FA689B7894D
:100750002C93A089B1898C9180648C93938D848D26
:10076000981306C00288F389E02D80818F7D8083F5
:100770000895EF92FF920F931F93CF93DF93EC01B5
:1007800081E0888F9B8D8C8D981305C0E889F9894D
:10079000808185FD24C0F62E0B8D10E00F5F1F4F6A
:1007A0000F731127E02E8C8DE8120CC00FB607FCDA
:1007B000FACFE889F989808185FFF5CFCE010E94C3
:1007C0009803F1CF8B8DFE01E80FF11DE35AFF4F27
:1007D000F0820B8FEA89FB898081806207C0EE89F5
:1007E000FF896083E889F98980818064808381E062
:1007F00090E0DF91CF911F910F91FF90EF900895BE
:10080000CF93DF93EC01888D8823C9F0EA89FB89B7
:10081000808185FD05C0A889B9898C9186FD0FC0AE
:100820000FB607FCF5CF808185FFF2CFA889B98983
:100830008C9185FFEDCFCE010E949803E7CFDF9129
:10084000CF91089580E090E0892B21F00E948E03E3
:10085000811125C080E090E0892B41F080E090E09C
:10086000892B21F00E94000081111CC080E090E0E3
:10087000892B41F080E090E0892B21F00E9400005C
:10088000811113C080E090E0892BA1F080E090E01E
:10089000892B81F00E94000081110AC008950E94F6
:1008A0000000D8CF0E940000E1CF0E940000EACFF4
:1008B0000C9400000895CF92DF92EF92FF920F9375
:1008C0001F93CF93DF936C017A018B01C0E0D0E0DE
:1008D000CE15DF0581F0D8016D918D01D601ED9126
:1008E000FC910190F081E02DC6011995892B11F042
:1008F0002196EECF7E01C701DF91CF911F910F911D
:10090000FF90EF90DF90CF9008950F931F93FC011D
:100910008FB7F894409123025091240260912502F0
:10092000709126028FBF04811581268137810115C0
:1009300011052105310529F44083518362837383B6
:1009400015C080819181A281B381481B590B6A0B2C
:100950007B0B401751076207730750F0800F911F00
:10096000A21FB31F80839183A283B38381E001C060
:1009700080E01F910F9108958F929F92AF92BF9246
:100980000F931F93CF93DF93CDB7DEB7A1970FB629
:10099000F894DEBF0FBECDBF19A2423008F44AE082
:1009A0008E010F5D1F4F842E912CA12CB12CA5011F
:1009B00094010E94200BE62FB901CA0101501109D0
:1009C000EA3014F4E05D01C0E95CD801EC93232B1C
:1009D000242B252B61F70115110571F0F801019009
:1009E0000020E9F73197AF01401B510BB80187E2B6
:1009F00092E00E945B0402C080E090E0A1960FB6F6
:100A0000F894DEBF0FBECDBFDF91CF911F910F9144
:100A1000BF90AF909F908F9008950E94780D2F9275
:100A20003F924F925F926F927F928F929F92AF927E
:100A3000BF92CF92DF92EF92FF920F931F93CF93CB
:100A4000DF93CDB7DEB761970FB6F894DEBF0FBE68
:100A5000CDBF1C016983598B488B0C871D872E875E
:100A60003F871A2D85E30E944002909303028093F2
:100A700002024C01990FAA08BB08B7FE0EC06DE236
:100A800087E292E00E94B90366277727CB016819B5
:100A900079098A099B094AE003C04AE0C501B4010B
:100AA0000E94BC0442E050E066E172E087E292E01E
:100AB0000E945B0487E30E94CB01AFEFB3E0A81B69
:100AC000B90B9D010E94690D2DE1422E25E0522EA9
:100AD000612C712CA30192010E94200BAFEFB0E0BA
:100AE0000E94150B2FE133E040E050E00E94F60A2F
:100AF000CA01B9010E94680C0E94300C6A837B8392
:100B00008C839D832A813B813093050220930402CC
:100B100089E30E94CB0199878887812F0E94400238
:100B20008C0180910202909103028130910509F0BD
:100B30003FC084E30E9440027C01909301028093B5
:100B4000000286E30E94CB019C01DC010E94690D3A
:100B5000A30192010E94200B20931A0230931B02E2
:100B600040931C0250931D020115110509F449C060
:100B70000130110509F024C1232B242B252B79F0FA
:100B8000F1E0EF16F10419F48FEF90E004C0EF28C4
:100B900031F487E390E09093050280930402609122
:100BA000040270910502E889F98971836083EDC0C0
:100BB000892B09F005C188E30E94CB019B878A87B6
:100BC00084E30E9440029F838E839093010280936E
:100BD000000286E30E94CB019C01DC010E94690DAA
:100BE000A30192010E94200B49015A0120931A028D
:100BF00030931B0240931C0250931D0201151105F6
:100C000039F4E889F9891182108260E070E0BDC092
:100C10000130110509F0D4C0AFEFB3E02885398564
:100C2000A21BB30B9D010E94690DA30192010E94BA
:100C3000200BCA01B9010E94660C20E030E040E6BA
:100C400051E40E94F40C20E030EC4FE754E40E94A1
:100C5000BE0B20E030E040E85FE30E94520BA701AA
:100C600096010E94F40C6B017C016FEF73E04A85E2
:100C70005B85641B750B072E000C880B990B0E947B
:100C8000660C20E030E040EE50E40E94F40C20E0DE
:100C900030EC4FE754E40E94BE0B20E030E040E827
:100CA0005FE30E94520B2C853D854E855F850E9437
:100CB000F40CE889F9892081318181149104A1041F
:100CC000B10409F448C04E815F814130510511F5EE
:100CD000232B09F449C011821082C501B4010E947E
:100CE000660C20E030E040EE50E40E94F40C20E07E
:100CF00030EC47E454E40E94BE0B20E030E040E8D2
:100D00005FE30E94520B9B01AC01C701B6010E9438
:100D1000BE0B30C0232B41F1E889F9891182108282
:100D2000C501B4010E94660C20E030E048EE51E4B9
:100D30000E94F40C20E030EC47E454E40E94BE0B27
:100D400020E030E040E85FE30E94520BA7019601EB
:100D50000E94F40C0FC0232B39F0E889F989118225
:100D60001082C701B60106C02A813B81E889F98952
:100D7000318320830E94370CF1016483758386835D
:100D80009783E889F98960817181898161960FB6BD
:100D9000F894DEBF0FBECDBFDF91CF911F910F91B1
:100DA000FF90EF90DF90CF90BF90AF909F908F908B
:100DB0007F906F905F904F903F902F900C9498028F
:100DC00061960FB6F894DEBF0FBECDBFDF91CF9115
:100DD0001F910F91FF90EF90DF90CF90BF90AF9059
:100DE0009F908F907F906F905F904F903F902F904B
:100DF00008951F920F920FB60F9211242F933F93D5
:100E00008F939F93AF93BF9380912302909124027D
:100E1000A0912502B09126023091220223E0230FF7
:100E20002D3720F40196A11DB11D05C026E8230F22
:100E30000296A11DB11D209322028093230290935C
:100E40002402A0932502B093260280911E02909165
:100E50001F02A0912002B09121020196A11DB11D97
:100E600080931E0290931F02A0932002B093210250
:100E7000BF91AF919F918F913F912F910F900FBE96
:100E80000F901F9018951F920F920FB60F9211247A
:100E90000BB60F922F933F934F935F936F937F9374
:100EA0008F939F93AF93BF93EF93FF9387E292E06B
:100EB0000E949803FF91EF91BF91AF919F918F9105
:100EC0007F916F915F914F913F912F910F900BBE4A
:100ED0000F900FBE0F901F9018951F920F920FB694
:100EE0000F9211240BB60F922F938F939F93EF9332
:100EF000FF93E0913702F09138028081E0913D024A
:100F0000F0913E0282FD12C09081809140028F5F7D
:100F10008F7320914102821751F0E0914002F0E07E
:100F2000E95DFD4F958F8093400201C08081FF9164
:100F3000EF919F918F912F910F900BBE0F900FBE4D
:100F40000F901F901895E7E2F2E01382128288EE6C
:100F500093E0A0E0B0E084839583A683B7838AE022
:100F600092E09183808385EC90E09587848784EC80
:100F700090E09787868780EC90E0918B808B81EC66
:100F800090E0938B828B82EC90E0958B848B86EC47
:100F900090E0978B868B118E128E138E148E80911B
:100FA0000402909105029093590380935803909303
:100FB0005703809356039093550380935403909363
:100FC0005303809352039093510380935003909363
:100FD0004F0380934E0390934D0380934C03909363
:100FE0004B0380934A039093490380934803909363
:100FF0004703809346039093450380934403909363
:101000004303809342039093410380934003909362
:101010003F0380933E0390933D0380933C038AE01B
:1010200090E0A0E0B0E08093380390933903A09360
:101030003A03B0933B038093300390933103A09322
:101040003203B09333038093280390932903A09332
:101050002A03B0932B038093200390932103A09342
:101060002203B09323038093180390931903A09352
:101070001A03B0931B038093100390931103A09362
:101080001203B09313038093080390930903A09372
:101090000A03B0930B038093000390930103A09382
:1010A0000203B09303038093F8029093F902A09394
:1010B000FA02B093FB028093F0029093F102A093A6
:1010C000F202B093F3028093E8029093E902A093B6
:1010D000EA02B093EB028093E0029093E102A093C6
:1010E000E202B093E3028093D8029093D902A093D6
:1010F000DA02B093DB028093D0029093D102A093E6
:10110000D202B093D3028093C8029093C902A093F5
:10111000CA02B093CB020895789484B5826084BDEE
:1011200084B5816084BD85B5826085BD85B58160EB
:1011300085BD80916E00816080936E001092810069
:101140008091810082608093810080918100816024
:1011500080938100809180008160809380008091E5
:10116000B10084608093B1008091B0008160809371
:10117000B0008091910082608093910080919100F5
:1011800081608093910080919000816080939000B5
:101190008091A10082608093A1008091A100816074
:1011A0008093A1008091A00081608093A000809135
:1011B00021018260809321018091210181608093CF
:1011C00021018091200181608093200180917A002B
:1011D000846080937A0080917A00826080937A00A4
:1011E00080917A00816080937A0080917A00806893
:1011F00080937A001092C100E0913702F09138029A
:1012000082E08083E0913302F09134021082E09119
:101210003502F09136028FEC808310923F02E0910C
:101220003B02F0913C0286E08083E0913902F0912C
:101230003A02808180618083E0913902F0913A0224
:10124000808188608083E0913902F0913A02808148
:1012500080688083E0913902F0913A0280818F7D2D
:1012600080838DE00E94AC018CE00E94AC018BE099
:101270000E94AC018AE00E94AC0189E00E94AC01AE
:1012800088E00E94AC0187E00E94AC0186E00E94E9
:10129000AC0185E00E94AC0184E00E94AC0183E0D7
:1012A0000E94AC0182E00E94AC018CE20E94AC0181
:1012B0008DE20E94AC018EE20E94AC0184E393E0D7
:1012C0000E9485048130A9F486E1A82EB12CC12C9E
:1012D000D12C97E5E92E93E4F92E00E010E020E20E
:1012E00031E448E553E06DE070E084E393E00E9470
:1012F0000F058CE293E00E9485048130A9F417E188
:10130000A12EB12CC12CD12C0CE5E02E03E4F02E43
:1013100000E010E020E231E446E553E06CE070E0EC
:101320008CE293E00E940F0584E293E00E94850422
:101330008130A9F4A8E1AA2EB12CC12CD12CB1E6A0
:10134000EB2EB3E4FB2E00E010E020E231E444E5B4
:1013500053E06BE070E084E293E00E940F058CE1C3
:1013600093E00E9485048130A9F4E9E1AE2EB12C0E
:10137000C12CD12CFAEFEF2EF2E4FF2E00E010E0AA
:1013800020E231E442E553E06AE070E08CE193E072
:101390000E940F0584E193E00E9485048130A9F446
:1013A0006AE1A62EB12CC12CD12C72E0E72E73E499
:1013B000F72E00E010E020E231E440E553E069E080
:1013C00070E084E193E00E940F058CE093E00E94BE
:1013D00085048130A9F44BE1A42EB12CC12CD12C71
:1013E00057E0E52E53E4F52E00E010E020E231E472
:1013F0004EE453E068E070E08CE093E00E940F055B
:1014000084E093E00E9485048130A9F42CE1A22EAF
:10141000B12CC12CD12C31E1E32E33E4F32E00E0CA
:1014200010E020E231E44CE453E067E070E084E057
:1014300093E00E940F058CEF92E00E9485048130BA
:10144000A9F48DE1A82EB12CC12CD12C96E1E92E66
:1014500093E4F92E00E010E020E231E44AE453E0A6
:1014600066E070E08CEF92E00E940F0584EF92E05E
:101470000E9485048130A9F41EE1A12EB12CC12C5B
:10148000D12C0BE1E02E03E4F02E00E010E020E28E
:1014900031E448E453E065E070E084EF92E00E94BC
:1014A0000F058CEE92E00E9485048130A9F4AFE133
:1014B000AA2EB12CC12CD12CBEEBEB2EB2E4FB2E0C
:1014C00000E010E020E231E446E453E064E070E044
:1014D0008CEE92E00E940F0584EE92E00E9485045B
:1014E0008130A9F4E0E2AE2EB12CC12CD12CF8EC65
:1014F000EF2EF2E4FF2E00E010E020E231E444E4BD
:1015000053E063E070E084EE92E00E940F058CED02
:1015100092E00E9485048130A9F461E2A62EB12CEC
:10152000C12CD12C72EDE72E72E4F72E00E010E012
:1015300020E231E442E453E062E070E08CED92E0BE
:101540000E940F0584ED92E00E9485048130A9F489
:1015500042E2A42EB12CC12CD12C5AEAE52E52E441
:10156000F52E00E010E020E231E440E453E06CE2CC
:1015700070E084ED92E00E940F058CEC92E00E94F6
:1015800085048130A9F423E2A22EB12CC12CD12CE8
:1015900034EBE32E32E4F32E00E010E020E231E4FD
:1015A0004EE353E06DE270E08CEC92E00E940F0598
:1015B00084EC92E00E9485048130A9F484E2A82E94
:1015C000B12CC12CD12C9EEBE92E92E4F92E00E037
:1015D00010E020E231E44CE353E06EE270E084EC92
:1015E00092E00E940F050E94220468CE052E97FB10
:1015F0001EF400940E940D0B57FD07D00E94200B93
:1016000007FC03D04EF40C940D0B5095409530958B
:1016100021953F4F4F4F5F4F08959095809570955E
:1016200061957F4F8F4F9F4F08950E94420BA59F5A
:10163000900DB49F900DA49F800D911D11240895CD
:10164000A1E21A2EAA1BBB1BFD010DC0AA1FBB1FC6
:10165000EE1FFF1FA217B307E407F50720F0A21B38
:10166000B30BE40BF50B661F771F881F991F1A94A5
:1016700069F760957095809590959B01AC01BD01CF
:10168000CF010895A29FB001B39FC001A39F700D29
:10169000811D1124911DB29F700D811D1124911D7A
:1016A00008955058BB27AA270E94690B0C94BA0CC6
:1016B0000E94AC0C38F00E94B30C20F039F49F3F2C
:1016C00019F426F40C94A90C0EF4E095E7FB0C94A5
:1016D000A30CE92F0E94CB0C58F3BA1762077307CB
:1016E0008407950720F079F4A6F50C94ED0C0EF420
:1016F000E0950B2EBA2FA02D0B01B90190010C0122
:10170000CA01A0011124FF27591B99F0593F50F439
:10171000503E68F11A16F040A22F232F342F442791
:10172000585FF3CF469537952795A795F040539589
:10173000C9F77EF41F16BA0B620B730B840BBAF059
:101740009150A1F0FF0FBB1F661F771F881FC2F7C4
:101750000EC0BA0F621F731F841F48F487957795D8
:101760006795B795F7959E3F08F0B0CF9395880F92
:1017700008F09927EE0F9795879508950E94D20B50
:101780000C94BA0C0E94B30C58F00E94AC0C40F0C0
:1017900029F45F3F29F00C94A30C51110C94EE0C2A
:1017A0000C94A90C0E94CB0C68F39923B1F3552338
:1017B00091F3951B550BBB27AA2762177307840764
:1017C00038F09F5F5F4F220F331F441FAA1FA9F3FA
:1017D00035D00E2E3AF0E0E832D091505040E695E8
:1017E000001CCAF72BD0FE2F29D0660F771F881F49
:1017F000BB1F261737074807AB07B0E809F0BB0B3C
:10180000802DBF01FF2793585F4F3AF09E3F51054F
:1018100078F00C94A30C0C94EE0C5F3FE4F3983E2C
:10182000D4F3869577956795B795F7959F5FC9F738
:10183000880F911D9695879597F90895E1E0660FB9
:10184000771F881FBB1F621773078407BA0720F032
:10185000621B730B840BBA0BEE1F88F7E09508959B
:101860000E94370C6894B1110C94EE0C08950E94FC
:10187000D30C88F09F5798F0B92F9927B751B0F043
:10188000E1F0660F771F881F991F1AF0BA95C9F704
:1018900014C0B13091F00E94ED0CB1E008950C94A9
:1018A000ED0C672F782F8827B85F39F0B93FCCF35C
:1018B000869577956795B395D9F73EF49095809581
:1018C000709561957F4F8F4F9F4F0895E89409C0A1
:1018D00097FB3EF490958095709561957F4F8F4F63
:1018E0009F4F9923A9F0F92F96E9BB279395F69579
:1018F000879577956795B795F111F8CFFAF4BB0FF7
:1019000011F460FF1BC06F5F7F4F8F4F9F4F16C05A
:10191000882311F096E911C0772321F09EE8872FE4
:10192000762F05C0662371F096E8862F70E060E0A0
:101930002AF09A95660F771F881FDAF7880F969519
:10194000879597F9089597F99F6780E870E060E0C0
:1019500008959FEF80EC089500240A941616170648
:1019600018060906089500240A9412161306140690
:1019700005060895092E0394000C11F4882352F0F3
:10198000BB0F40F4BF2B11F460FF04C06F5F7F4FAB
:101990008F4F9F4F089557FD9058440F551F59F092
:1019A0005F3F71F04795880F97FB991F61F09F3F4C
:1019B00079F087950895121613061406551FF2CF75
:1019C0004695F1DF08C0161617061806991FF1CFC5
:1019D00086957105610508940895E894BB276627EC
:1019E0007727CB0197F908950E94070D0C94BA0C44
:1019F0000E94AC0C38F00E94B30C20F0952311F03B
:101A00000C94A30C0C94A90C11240C94EE0C0E94C1
:101A1000CB0C70F3959FC1F3950F50E0551F629F5B
:101A2000F001729FBB27F00DB11D639FAA27F00D37
:101A3000B11DAA1F649F6627B00DA11D661F829F5E
:101A40002227B00DA11D621F739FB00DA11D621F43
:101A5000839FA00D611D221F749F3327A00D611D60
:101A6000231F849F600D211D822F762F6A2F112442
:101A70009F5750409AF0F1F088234AF0EE0FFF1F75
:101A8000BB1F661F771F881F91505040A9F79E3FCC
:101A9000510580F00C94A30C0C94EE0C5F3FE4F322
:101AA000983ED4F3869577956795B795F795E79522
:101AB0009F5FC1F7FE2B880F911D9695879597F92B
:101AC0000895EE0FFF1F881F8BBF0790F691E02D42
:101AD00019940E94420B332312F48A1B9B0B0C9423
:101AE000730D0E94420BB7FF0895821B930B08955C
:0E1AF00081E090E0F8940C947D0DF894FFCF07
:101AFE0001000100FF0000000000B9035B04820337
:0A1B0E006003740300040D0A0000D8
:00000001FF
