:100000000C9479010C94AA010C94AA010C94AA01F5
:100010000C94AA010C94AA010C94AA010C94AA01B4
:100020000C94AA010C94AA010C94AA010C94AA01A4
:100030000C94AA010C94AA010C94AA010C94AA0194
:100040000C94AA010C94AA010C94AA010C94AA0184
:100050000C94AA010C94AA010C94AA010C94E20736
:100060000C94AA010C9456080C942C080C94AA0128
:100070000C94AA010C94AA010C94AA010C94AA0154
:100080000C94AA010C94AA010C94AA010C94AA0144
:100090000C94AA010C94AA010C94AA010C94AA0134
:1000A0000C94AA010C94AA010C94AA010C94AA0124
:1000B0000C94AA010C94AA010C94AA010C94AA0114
:1000C0000C94AA010C94AA010C94AA010C94AA0104
:1000D0000C94AA010C94AA010C94AA010C94AA01F4
:1000E0000C94AA012F023202210225022B0269027E
:1000F00036023A024002440248024E0252025602BE
:1001000069025C0260026402EA02EF02F402FE028B
:100110000803810312031A0322032C03360340034E
:100120004F035903810363036D0377030C94690242
:100130000C9481030C942B020C94E3030C942C0379
:100140000C946D030C949E030C9408030C944E02C3
:100150000C9459030C94EA020C948A030C94210227
:100160000C942F020C9456020C943A020C94AC039B
:100170000C945C020C9432020C942A040C94CB0173
:100180000C944F030C948C080C941A030C944003A9
:100190000C9464020C9460020C9444020C94360398
:1001A0000C9477030C9448020C9463030C9425027E
:1001B0000C94EF020C9440020C9436020C94FE0254
:1001C0000C9412030C9452020C9422030C94F4022B
:1001D000000020002300260029002C002F00320000
:1001E0000001000003010601090100000A0B0209D9
:1001F0000C0D0E08070304010000000000000000C1
:1002000000000000000000000000000000000000EE
:1002100000000000000012111000000000000000AB
:1002200000000000000000000000000000000000CE
:1002300000002200250028002B002E003100340091
:1002400002010000050108010B010000210024004B
:1002500027002A002D0030003300010100000401B6
:1002600007010A0105050505070508080808020237
:1002700002020A0A08080404040401010101010140
:1002800001010303030303030303040707070C0C23
:100290000C0C0C0C0C0C02020202060606060606EA
:1002A00006060B0B0B0B0B0B0B0B0102102020088F
:1002B00008102040102040800201020108040201C1
:1002C0000102040810204080804020100804020130
:1002D0008004020180402010080402010804020189
:1002E0000102040810204080010204081020408010
:1002F0008C0811241FBECFEFD1E2DEBFCDBF00E0DE
:100300000CBF12E0A0E0B2E0EAE1FFE100E00BBFC9
:1003100002C007900D92A235B107D9F723E0A2E5FC
:10032000B2E001C01D92A839B207E1F711E0C9E7B8
:10033000D1E000E006C021970109802FFE010E9454
:100340006F0FC837D10780E00807A9F70E94130A8A
:100350000C948B0F0C94000090E0FC01E655FD4FCF
:100360002491FC01EC59FD4F8491882399F090E091
:10037000880F991FFC01E65BFD4FA591B491FC012C
:10038000E05DFD4F859194918FB7F894EC91E22B4D
:10039000EC938FBF0895CF92DF92EF92FF920F936D
:1003A0001F93CF93DF936C017A018B01C0E0D0E003
:1003B000CE15DF0581F0D8016D918D01D601ED914B
:1003C000FC910190F081E02DC6011995892B11F067
:1003D0002196EECF7E01C701DF91CF911F910F9142
:1003E000FF90EF90DF90CF900895863308F086530A
:1003F00090917B00282F2870977F922B90937B0001
:100400008770806480937C0080917A008064809300
:100410007A0080917A0086FDFCCF8091780020914F
:10042000790090E0922B089590E0FC013197E23141
:10043000F10508F04EC08827EE58FF4F8F4F0C94FF
:100440006F0F809180008F7703C0809180008F7D37
:1004500080938000089580918000877FF9CF84B5D4
:100460008F7702C084B58F7D84BD08958091B000E0
:100470008F7703C08091B0008F7D8093B000089586
:10048000809190008F7707C0809190008F7D03C08E
:1004900080919000877F8093900008958091A000C4
:1004A0008F7707C08091A0008F7D03C08091A0004E
:1004B000877F8093A0000895809120018F7707C0E7
:1004C000809120018F7D03C080912001877F8093E0
:1004D00020010895CF93DF93282F30E0F901E651F2
:1004E000FE4F8491F901E655FD4FD491F901EC5985
:1004F000FD4FC491CC2391F081110E941402EC2F86
:10050000F0E0EE0FFF1FE053FE4FA591B491EC9188
:10051000ED2381E090E021F480E002C080E090E0F3
:10052000DF91CF9108951F93CF93DF93282F30E071
:10053000F901E651FE4F8491F901E655FD4FD49142
:10054000F901EC59FD4FC491CC23C1F0162F811154
:100550000E941402EC2FF0E0EE0FFF1FE05DFD4F54
:10056000A591B4919FB7F894111104C08C91D095C6
:10057000D82302C0EC91DE2BDC939FBFDF91CF919B
:100580001F9108951F93CF93DF93182FEB010E94C3
:10059000AC01209711F460E004C0CF3FD10539F4DD
:1005A00061E0812FDF91CF911F910C949302E12F95
:1005B000F0E0E651FE4FE4918E2F90E0FC01319780
:1005C000E231F10508F09DC08827EC57FF4F8F4FAF
:1005D0000C946F0F84B5806884BDC7BD97C084B587
:1005E000806284BDC8BD92C0809180008068809385
:1005F0008000D0938900C093880088C080918000DB
:10060000806280938000D0938B00C0938A007EC06C
:1006100080918000886080938000D0938D00C0938B
:100620008C0074C08091B00080688093B000C0934B
:10063000B3006CC08091B00080628093B000C09322
:10064000B40064C080919000806880939000D09343
:100650009900C09398005AC0809190008062809366
:100660009000D0939B00C0939A0050C0809190005E
:10067000886080939000D0939D00C0939C0046C0FA
:100680008091A00080688093A0008091A0008F7B63
:100690008093A000D093A900C093A80037C0809198
:1006A000A00080628093A000D093AB00C093AA000A
:1006B0002DC08091A00088608093A000D093AD00F1
:1006C000C093AC0023C080912001806880932001FA
:1006D000D0932901C093280119C080912001806224
:1006E00080932001D0932B01C0932A010FC08091E9
:1006F0002001886080932001D0932D01C0932C01AC
:1007000005C0C038D1050CF04BCF45CFDF91CF915C
:100710001F910895FC01918D828D981761F0828D53
:10072000DF01A80FB11D5D968C91928D9F5F9F7325
:10073000928F90E008958FEF9FEF0895FC01918DC7
:10074000828D981731F0828DE80FF11D858D90E034
:1007500008958FEF9FEF0895FC01918D228D892FD1
:1007600090E0805C9F4F821B91098F7399270895B9
:100770008FE592E00E94AC0321E0892B09F420E090
:10078000822F0895FC01848DDF01A80FB11DA35AAB
:10079000BF4F2C91848D90E001968F739927848FA1
:1007A000A689B7892C93A089B1898C9180648C9398
:1007B000938D848D981306C00288F389E02D808183
:1007C0008F7D80830895EF92FF920F931F93CF93B5
:1007D000DF93EC0181E0888F9B8D8C8D981305C091
:1007E000E889F989808185FD24C0F62E0B8D10E003
:1007F0000F5F1F4F0F731127E02E8C8DE8120CC076
:100800000FB607FCFACFE889F989808185FFF5CF1B
:10081000CE010E94C203F1CF8B8DFE01E80FF11DC6
:10082000E35AFF4FF0820B8FEA89FB898081806257
:1008300007C0EE89FF896083E889F9898081806437
:10084000808381E090E0DF91CF911F910F91FF9025
:10085000EF900895CF93DF93EC01888D8823C9F042
:10086000EA89FB89808185FD05C0A889B9898C91B9
:1008700086FD0FC00FB607FCF5CF808185FFF2CF54
:10088000A889B9898C9185FFEDCFCE010E94C20362
:10089000E7CFDF91CF91089580E090E0892B21F0A0
:1008A0000E94B803811125C080E090E0892B41F0BF
:1008B00080E090E0892B21F00E94000081111CC093
:1008C00080E090E0892B41F080E090E0892B21F0DE
:1008D0000E940000811113C080E090E0892BA1F0FC
:1008E00080E090E0892B81F00E94000081110AC015
:1008F00008950E940000D8CF0E940000E1CF0E941E
:100900000000EACF0C94000008950F931F93FC01A0
:100910008FB7F89440915B0250915C0260915D0248
:1009200070915E028FBF0481158126813781011588
:1009300011052105310529F44083518362837383B6
:1009400015C080819181A281B381481B590B6A0B2C
:100950007B0B401751076207730750F0800F911F00
:10096000A21FB31F80839183A283B38381E001C060
:1009700080E01F910F9108952F923F924F925F92C6
:100980006F927F928F929F92AF92BF92CF92DF929F
:10099000EF92FF920F931F93CF93DF93CDB7DEB704
:1009A00029970FB6F894DEBF0FBECDBF9A83898317
:1009B0006D831A010E831F832887398785E30E9480
:1009C0006A028C0190930302809302028A2D0E9496
:1009D0006A025C010130110509F04DC180E090E030
:1009E000A0E2B1E480933C0290933D02A0933E02CA
:1009F000B0933F028093380290933902A0933A0259
:100A0000B0933B028093340290933502A093360258
:100A1000B09337028093300290933102A093320258
:100A2000B093330280932C0290932D02A0932E0258
:100A3000B0932F028093280290932902A0932A0258
:100A4000B0932B028093240290932502A093260258
:100A5000B09327028093200290932102A093220258
:100A6000B093230280931C0290931D02A0931E0258
:100A7000B0931F028093180290931902A0931A0258
:100A8000B0931B028093140290931502A093160258
:100A9000B09317028093100290931102A093120258
:100AA000B093130280930C0290930D02A0930E0258
:100AB000B0930F028093080290930902A0930A0258
:100AC000B0930B028093040290930502A093060258
:100AD000B093070288E30E94F5010FEF13E0D801FD
:100AE000A81BB90B9D010E94770F2DE1C22E25E0B6
:100AF000D22EE12CF12CA70196010E942E0DAFEF12
:100B0000B0E00E94230D3FE1432E33E0532E612CD1
:100B1000712CA30192010E94040DCA01B9010E9427
:100B2000760E0E943E0E69837A838B839C83898133
:100B30009A81909397038093960389E30E94F5012D
:100B4000D801A81BB90B9D010E94770FA701960140
:100B50000E942E0DAFEFB0E00E94230DA301920181
:100B60000E94040DCA01B9010E94760E0E943E0E39
:100B70006E837F8388879987EE81FF81F093950349
:100B8000E093940387E30E94F501D801A81BB90BF9
:100B90009D010E94770FA70196010E942E0DAFEFD5
:100BA000B0E00E94230DA30192010E94040DCA012E
:100BB000B9010E94760E0E943E0E2B013C017093FB
:100BC00093036093920384E30E946A028C019093E2
:100BD00001028093000286E30E94F5019C01DC0182
:100BE0000E94770FA70196010E942E0D20935202BA
:100BF000309353024093540250935502A114B10410
:100C000009F416C1AA94AB2809F0C1C1232B242BE7
:100C1000252B79F00130110519F48FEF90E004C015
:100C2000012B09F582E390E090934102809340020A
:100C30001AC081E08816910439F4E981FA81F093B1
:100C40004102E09340020FC0F2E08F16910419F4C4
:100C50008E819F81E9CF93E08916910421F450920F
:100C60004102409240026091400270914102F101C4
:100C70007183608371C1012B09F089C180E090E824
:100C8000AEE8B3E480933C0290933D02A0933E0211
:100C9000B0933F0280E090E0A1E9B3E48093380292
:100CA00090933902A0933A02B0933B0280E090E81F
:100CB000A3E9B3E48093340290933502A093360203
:100CC000B093370280E090E0A9E3B3E48093300270
:100CD00090933102A0933202B093330280E090E00F
:100CE000AEE3B3E480932C0290932D02A0932E02E6
:100CF000B0932F0280E090E0A3E4B3E48093280255
:100D000090932902A0932A02B0932B0280E090E8EE
:100D1000A0ECB3E48093240290932502A0932602D2
:100D2000B093270280E090E0A3ECB3E4809320022C
:100D300090932102A0932202B093230280E090E8D6
:100D4000A5ECB3E480931C0290931D02A0931E02B5
:100D5000B0931F0280E090E0AAEFB2E48093180203
:100D600090931902A0931A02B0931B0280E090E0C6
:100D7000A2E0B3E48093140290931502A0931602AC
:100D8000B093170280E090E0A7E0B3E480931002F4
:100D900090931102A0931202B093130280E090E8A6
:100DA000A2EAB3E480930C0290930D02A0930E028A
:100DB000B0930F0280E090E0A5EAB3E480930802CC
:100DC00090930902A0930A02B0930B0280E090E88E
:100DD000A7EAB3E48093040290930502A09306026D
:100DE000B093070288E30E94F5014C0184E30E945E
:100DF0006A028C01909301028093000286E30E94B4
:100E0000F5019C01DC010E94770F2DE135E040E007
:100E100050E00E942E0D29013A0120935202309396
:100E200053024093540250935502A114B10431F47B
:100E3000F1011182108260E070E08EC0AA94AB28AC
:100E400009F0A5C06FEF73E068197909072E000C4F
:100E5000880B990B0E94740E20E030E040EE50E4C5
:100E60000E94020F20E030EC4FE754E40E94CC0DCA
:100E700020E030E040E85FE30E94600D2E813F817A
:100E8000488559850E94020FF1012081318141146A
:100E900051046104710409F445C00130110511F5D4
:100EA000232B09F447C011821082C301B2010E94B2
:100EB000740E20E030E040EE50E40E94020F20E08B
:100EC00030EC47E454E40E94CC0D20E030E040E8F0
:100ED0005FE30E94600D9B01AC01C701B6010E9457
:100EE000CC0D2FC0232B31F1F10111821082C301EF
:100EF000B2010E94740E20E030E048EE51E40E94FE
:100F0000020F20E030EC47E454E40E94CC0D20E0D6
:100F100030E040E85FE30E94600DA70196010E9467
:100F2000020F0FC0232B31F0F10111821082C70193
:100F3000B60107C02091400230914102F101318396
:100F400020830E94450EE981FA816483758386833C
:100F50009783F101608171818D8129960FB6F89494
:100F6000DEBF0FBECDBFDF91CF911F910F91FF90DC
:100F7000EF90DF90CF90BF90AF909F908F907F9039
:100F80006F905F904F903F902F900C94C2022996E3
:100F90000FB6F894DEBF0FBECDBFDF91CF911F918A
:100FA0000F91FF90EF90DF90CF90BF90AF909F9008
:100FB0008F907F906F905F904F903F902F9008950B
:100FC0000E94860F1F920F920FB60F9211242F933B
:100FD0003F938F939F93AF93BF9380915B029091C8
:100FE0005C02A0915D02B0915E0230915A0223E052
:100FF000230F2D3720F40196A11DB11D05C026E851
:10100000230F0296A11DB11D20935A0280935B020B
:1010100090935C02A0935D02B0935E0280915602B1
:1010200090915702A0915802B09159020196A11DCA
:10103000B11D8093560290935702A0935802B0932B
:101040005902BF91AF919F918F913F912F910F9036
:101050000FBE0F901F9018951F920F920FB60F9210
:1010600011240BB60F922F933F934F935F936F937F
:101070007F938F939F93AF93BF93EF93FF938FE5EE
:1010800092E00E94C203FF91EF91BF91AF919F91B7
:101090008F917F916F915F914F913F912F910F9021
:1010A0000BBE0F900FBE0F901F9018951F920F92BE
:1010B0000FB60F9211240BB60F922F938F939F931D
:1010C000EF93FF93E0916F02F09170028081E091C5
:1010D0007502F091760282FD12C0908180917802B3
:1010E0008F5F8F7320917902821751F0E09178021F
:1010F000F0E0E15AFD4F958F8093780201C0808126
:10110000FF91EF919F918F912F910F900BBE0F90B8
:101110000FBE0F901F901895EFE5F2E01382128238
:1011200088EE93E0A0E0B0E084839583A683B78344
:1011300086E492E09183808385EC90E095878487B4
:1011400084EC90E09787868780EC90E0918B808B91
:1011500081EC90E0938B828B82EC90E0958B848B7A
:1011600086EC90E0978B868B118E128E138E148EE8
:10117000809140029091410290939703809396034F
:101180009093950380939403909393038093920399
:10119000909391038093900390938F0380938E0399
:1011A00090938D0380938C0390938B0380938A0399
:1011B0009093890380938803909387038093860399
:1011C0009093850380938403909383038093820399
:1011D000909381038093800390937F0380937E0399
:1011E00090937D0380937C0390937B0380937A0399
:1011F0009093790380937803909377038093760399
:10120000909375038093740360913C0270913D024A
:1012100080913E0290913F020E94450E60937003C0
:1012200070937103809372039093730360913802FB
:101230007091390280913A0290913B020E94450ED2
:10124000609368037093690380936A0390936B03C0
:10125000609134027091350280913602909137028C
:101260000E94450E60936003709361038093620354
:101270009093630360913002709131028091320249
:10128000909133020E94450E609358037093590366
:1012900080935A0390935B0360912C0270912D020E
:1012A00080912E0290912F020E94450E6093500370
:1012B00070935103809352039093530360912802DB
:1012C0007091290280912A0290912B020E94450E72
:1012D000609348037093490380934A0390934B03B0
:1012E000609124027091250280912602909127023C
:1012F0000E94450E60934003709341038093420324
:101300009093430360912002709121028091220208
:10131000909123020E94450E609338037093390325
:1013200080933A0390933B0360911C0270911D02DD
:1013300080911E0290911F020E94450E609330031F
:1013400070933103809332039093330360911802BA
:101350007091190280911A0290911B020E94450E11
:10136000609328037093290380932A0390932B039F
:1013700060911402709115028091160290911702EB
:101380000E94450E609320037093210380932203F3
:1013900090932303609110027091110280911202C8
:1013A000909113020E94450E6093180370931903E5
:1013B00080931A0390931B0360910C0270910D02AD
:1013C00080910E0290910F020E94450E60931003CF
:1013D000709311038093120390931303609108029A
:1013E0007091090280910A0290910B020E94450EB1
:1013F000609308037093090380930A0390930B038F
:10140000609104027091050280910602909107029A
:101410000E94450E609300037093010380930203C2
:10142000909303030895789484B5826084BD84B555
:10143000816084BD85B5826085BD85B5816085BDCF
:1014400080916E00816080936E0010928100809187
:10145000810082608093810080918100816080930F
:101460008100809180008160809380008091B10034
:1014700084608093B1008091B00081608093B0005F
:1014800080919100826080939100809191008160B1
:101490008093910080919000816080939000809172
:1014A000A10082608093A1008091A100816080935F
:1014B000A1008091A00081608093A0008091210113
:1014C00082608093210180912101816080932101BC
:1014D0008091200181608093200180917A00846056
:1014E00080937A0080917A00826080937A00809164
:1014F0007A00816080937A0080917A00806880937E
:101500007A001092C100E0916F02F091700282E0C7
:101510008083E0916B02F0916C021082E0916D0289
:10152000F0916E028FEC808310927702E09173024B
:10153000F091740286E08083E0917102F091720272
:10154000808180618083E0917102F09172028081DC
:1015500088608083E0917102F091720280818068DE
:101560008083E0917102F091720280818F7D80838F
:101570008DE00E94AC018CE00E94AC018BE00E94E7
:10158000AC018AE00E94AC0189E00E94AC0188E0D5
:101590000E94AC0187E00E94AC0186E00E94AC0191
:1015A00085E00E94AC0184E00E94AC0183E00E94CF
:1015B000AC0182E00E94AC018CE20E94AC018DE2A1
:1015C0000E94AC018EE20E94AC0140903C0250901F
:1015D0003D0260903E0270903F028CE693E00E94D4
:1015E00085048130B1F488248394912C96E1A92E4E
:1015F000B12CC12CD12C27E5E22E23E4F22E93014D
:10160000820140E953E06DE070E08CE693E00E94D7
:10161000BC04409038025090390260903A027090B9
:101620003B0284E693E00E9485048130B1F4882473
:101630008394912C17E1A12EB12CC12CD12C0CE557
:10164000E02E03E4F02E930182014EE853E06CE0BB
:1016500070E084E693E00E94BC0440903402509015
:10166000350260903602709037028CE593E00E945C
:1016700085048130B1F488248394912CF8E1AF2E55
:10168000B12CC12CD12CA1E6EA2EA3E4FA2E9301B1
:1016900082014CE853E06BE070E08CE593E00E943F
:1016A000BC04409030025090310260903202709041
:1016B000330284E593E00E9485048130B1F48824EC
:1016C0008394912C69E1A62EB12CC12CD12C7AEFF8
:1016D000E72E72E4F72E930182014AE853E06AE0B4
:1016E00070E084E593E00E94BC0440902C0250908E
:1016F0002D0260902E0270902F028CE493E00E94E5
:1017000085048130B1F488248394912C3AE1A32E8E
:10171000B12CC12CD12C42E0E42E43E4F42E9301F1
:10172000820148E853E069E070E08CE493E00E94B5
:10173000BC04409028025090290260902A027090C8
:101740002B0284E493E00E9485048130B1F402E02E
:10175000802E912C8BE1A82EB12CC12CD12C97E09E
:10176000E92E93E4F92E9301820146E853E068E004
:1017700070E084E493E00E94BC0440902402509006
:10178000250260902602709027028CE393E00E946D
:1017900085048130B1F4A2E08A2E912CBCE1AB2EFD
:1017A000B12CC12CD12C11E1E12E13E4F12E9301C7
:1017B000820144E853E067E070E08CE393E00E942C
:1017C000BC04409020025090210260902202709050
:1017D000230284E393E00E9485048130B1F472E037
:1017E000872E912CEDE1AE2EB12CC12CD12CF6E13F
:1017F000EF2EF3E4FF2E9301820142E853E066E00E
:1018000070E084E393E00E94BC0440901C0250907E
:101810001D0260901E0270901F028CE293E00E94F5
:1018200085048130B1F442E0842E912C5EE1A52E36
:10183000B12CC12CD12C6BE1E62E63E4F62E930182
:10184000820140E853E065E070E08CE293E00E94A2
:10185000BC04409018025090190260901A027090D7
:101860001B0284E293E00E9485048130B1F492E08F
:10187000892E912C2FE1A22EB12CC12CD12C3EEB24
:10188000E32E32E4F32E930182014EE753E064E04D
:1018900070E084E293E00E94BC04409014025090F7
:1018A000150260901602709017028CE193E00E947E
:1018B00085048130B1F413E0812E912C00E2A02E3A
:1018C000B12CC12CD12C88ECE82E82E4F82E9301A7
:1018D00082014CE753E063E070E08CE193E00E940A
:1018E000BC0440901002509011026090120270905F
:1018F000130284E193E00E9485048130B1F4F3E0A7
:101900008F2E912CA1E2AA2EB12CC12CD12CB2ED9C
:10191000EB2EB2E4FB2E930182014AE753E062E032
:1019200070E084E193E00E94BC0440900C0250906F
:101930000D0260900E0270900F028CE093E00E9406
:1019400085048130B1F463E0862E912C72E2A72EDB
:10195000B12CC12CD12CEAEAEE2EE2E4FE2E93014A
:10196000820148E753E06CE270E08CE093E00E9473
:10197000BC04409008025090090260900A027090E6
:101980000B0284E093E00E9485048130B1F433E0DF
:10199000832E912C43E2A42EB12CC12CD12C54EBDC
:1019A000E52E52E4F52E9301820146E753E06DE205
:1019B00070E084E093E00E94BC04409004025090E8
:1019C000050260900602709007028CEF92E00E9480
:1019D00085048130B1F483E0882E912C94E2A92E05
:1019E000B12CC12CD12C2EEBE22E22E4F22E93014D
:1019F000820144E753E06EE270E08CEF92E00E94D7
:101A0000BC040E944C04E1CD052E97FB1EF400940B
:101A10000E941B0D57FD07D00E942E0D07FC03D01E
:101A20004EF40C941B0D50954095309521953F4FE9
:101A30004F4F5F4F089590958095709561957F4FBA
:101A40008F4F9F4F08950E94500DA59F900DB49FFA
:101A5000900DA49F800D911D11240895A1E21A2ECE
:101A6000AA1BBB1BFD010DC0AA1FBB1FEE1FFF1F42
:101A7000A217B307E407F50720F0A21BB30BE40B92
:101A8000F50B661F771F881F991F1A9469F76095D9
:101A90007095809590959B01AC01BD01CF01089593
:101AA000A29FB001B39FC001A39F700D811D11249F
:101AB000911DB29F700D811D1124911D08955058E4
:101AC000BB27AA270E94770D0C94C80E0E94BA0E5D
:101AD00038F00E94C10E20F039F49F3F19F426F42B
:101AE0000C94B70E0EF4E095E7FB0C94B10EE92FC1
:101AF0000E94D90E58F3BA17620773078407950737
:101B000020F079F4A6F50C94FB0E0EF4E0950B2E64
:101B1000BA2FA02D0B01B90190010C01CA01A0013F
:101B20001124FF27591B99F0593F50F4503E68F19A
:101B30001A16F040A22F232F342F4427585FF3CFDB
:101B4000469537952795A795F0405395C9F77EF4AC
:101B50001F16BA0B620B730B840BBAF09150A1F0F5
:101B6000FF0FBB1F661F771F881FC2F70EC0BA0F7B
:101B7000621F731F841F48F4879577956795B79503
:101B8000F7959E3F08F0B0CF9395880F08F09927FE
:101B9000EE0F9795879508950E94E00D0C94C80E5E
:101BA0000E94C10E58F00E94BA0E40F029F45F3F27
:101BB00029F00C94B10E51110C94FC0E0C94B70E3C
:101BC0000E94D90E68F39923B1F3552391F3951B25
:101BD000550BBB27AA2762177307840738F09F5F4E
:101BE0005F4F220F331F441FAA1FA9F335D00E2EBB
:101BF0003AF0E0E832D091505040E695001CCAF728
:101C00002BD0FE2F29D0660F771F881FBB1F2617EA
:101C100037074807AB07B0E809F0BB0B802DBF01C1
:101C2000FF2793585F4F3AF09E3F510578F00C9490
:101C3000B10E0C94FC0E5F3FE4F3983ED4F386950E
:101C400077956795B795F7959F5FC9F7880F911DB1
:101C50009695879597F90895E1E0660F771F881F9D
:101C6000BB1F621773078407BA0720F0621B730B50
:101C7000840BBA0BEE1F88F7E09508950E94450E7D
:101C80006894B1110C94FC0E08950E94E10E88F046
:101C90009F5798F0B92F9927B751B0F0E1F0660F30
:101CA000771F881F991F1AF0BA95C9F714C0B13071
:101CB00091F00E94FB0EB1E008950C94FB0E672F8B
:101CC000782F8827B85F39F0B93FCCF386957795A0
:101CD0006795B395D9F73EF4909580957095619589
:101CE0007F4F8F4F9F4F0895E89409C097FB3EF4B4
:101CF00090958095709561957F4F8F4F9F4F992359
:101D0000A9F0F92F96E9BB279395F69587957795D6
:101D10006795B795F111F8CFFAF4BB0F11F460FF96
:101D20001BC06F5F7F4F8F4F9F4F16C0882311F0EE
:101D300096E911C0772321F09EE8872F762F05C002
:101D4000662371F096E8862F70E060E02AF09A959D
:101D5000660F771F881FDAF7880F9695879597F992
:101D6000089597F99F6780E870E060E008959FEF1D
:101D700080EC089500240A94161617061806090622
:101D8000089500240A9412161306140605060895F1
:101D9000092E0394000C11F4882352F0BB0F40F479
:101DA000BF2B11F460FF04C06F5F7F4F8F4F9F4FB9
:101DB000089557FD9058440F551F59F05F3F71F03B
:101DC0004795880F97FB991F61F09F3F79F08795A2
:101DD0000895121613061406551FF2CF4695F1DF2B
:101DE00008C0161617061806991FF1CF86957105BB
:101DF000610508940895E894BB2766277727CB01EF
:101E000097F908950E94150F0C94C80E0E94BA0EFF
:101E100038F00E94C10E20F0952311F00C94B10E01
:101E20000C94B70E11240C94FC0E0E94D90E70F382
:101E3000959FC1F3950F50E0551F629FF001729F6F
:101E4000BB27F00DB11D639FAA27F00DB11DAA1F7E
:101E5000649F6627B00DA11D661F829F2227B00DCB
:101E6000A11D621F739FB00DA11D621F839FA00D56
:101E7000611D221F749F3327A00D611D231F849FA6
:101E8000600D211D822F762F6A2F11249F575040FD
:101E90009AF0F1F088234AF0EE0FFF1FBB1F661F78
:101EA000771F881F91505040A9F79E3F510580F041
:101EB0000C94B10E0C94FC0E5F3FE4F3983ED4F307
:101EC000869577956795B795F795E7959F5FC1F7E5
:101ED000FE2B880F911D9695879597F90895EE0F23
:101EE000FF1F881F8BBF0790F691E02D19940E9469
:101EF000500D332312F48A1B9B0B0C94810F0E940C
:101F0000500DB7FF0895821B930B089581E090E078
:0A1F1000F8940C948B0FF894FFCFA7
:101F1A000100010000002041000020410000204192
:101F2A000000204100002041000020410000204123
:101F3A000000204100002041000020410000204113
:101F4A000000204100002041000020410000204103
:101F5A00FF0000000000E303CB01AC038A039E03E9
:021F6A002A0447
:00000001FF
