:100000000C9479010C94AA010C94AA010C94AA01F5
:100010000C94AA010C94AA010C94AA010C94AA01B4
:100020000C94AA010C94AA010C94AA010C94AA01A4
:100030000C94AA010C94AA010C94AA010C94AA0194
:100040000C94AA010C94AA010C94AA010C94AA0184
:100050000C94AA010C94AA010C94AA010C945E07BA
:100060000C94AA010C94D2070C94A8070C94AA0132
:100070000C94AA010C94AA010C94AA010C94AA0154
:100080000C94AA010C94AA010C94AA010C94AA0144
:100090000C94AA010C94AA010C94AA010C94AA0134
:1000A0000C94AA010C94AA010C94AA010C94AA0124
:1000B0000C94AA010C94AA010C94AA010C94AA0114
:1000C0000C94AA010C94AA010C94AA010C94AA0104
:1000D0000C94AA010C94AA010C94AA010C94AA01F4
:1000E0000C94AA0105020802F701FB0101023F027C
:1000F0000C02100216021A021E02240228022C020E
:100100003F02320236023A02C002C502CA02D402DB
:10011000DE025703E802F002F80202030C031603A2
:1001200025032F035703390343034D030C94CA02DD
:100130000C941E020C9408080C942F030C94F802E3
:100140000C940C030C94E8020C9460030C942802A9
:100150000C943F020C941A020C9424020C94D402C6
:100160000C9410020C943A020C9402030C94F701C4
:100170000C94F0020C9400040C9432020C94FB01D9
:100180000C942C020C9443030C9405020C94B903B8
:100190000C9439030C9416020C940C020C94160364
:1001A0000C9482030C944D030C94C0020C94010235
:1001B0000C9436020C945B040C9474030C94570357
:1001C0000C9408020C94DE020C94C5020C942503D6
:1001D000000020002300260029002C002F00320000
:1001E0000001000003010601090100000A0B0209D9
:1001F0000C0D0E08070304010000000000000000C1
:1002000000000000000000000000000000000000EE
:1002100000000000000012111000000000000000AB
:1002200000000000000000000000000000000000CE
:1002300000002200250028002B002E003100340091
:1002400002010000050108010B010000210024004B
:1002500027002A002D0030003300010100000401B6
:1002600007010A0105050505070508080808020237
:1002700002020A0A08080404040401010101010140
:1002800001010303030303030303040707070C0C23
:100290000C0C0C0C0C0C02020202060606060606EA
:1002A00006060B0B0B0B0B0B0B0B0102102020088F
:1002B00008102040102040800201020108040201C1
:1002C0000102040810204080804020100804020130
:1002D0008004020180402010080402010804020189
:1002E0000102040810204080010204081020408010
:1002F000080811241FBECFEFD1E2DEBFCDBF00E062
:100300000CBF12E0A0E0B2E0E8ECFBE100E00BBFC4
:1003100002C007900D92A032B107D9F723E0A0E206
:10032000B2E001C01D92A036B207E1F711E0C9E7C3
:10033000D1E000E006C021970109802FFE010E9454
:10034000C60DC837D10780E00807A9F70E94F10859
:100350000C94E20D0C94000090E0FC01E655FD4F7A
:100360002491FC01EC59FD4F8491882399F090E091
:10037000880F991FFC01E65BFD4FA591B491FC012C
:10038000E05DFD4F859194918FB7F894EC91E22B4D
:10039000EC938FBF0895863308F0865390917B00CD
:1003A000282F2870977F922B90937B008770806412
:1003B00080937C0080917A00806480937A008091A1
:1003C0007A0086FDFCCF809178002091790090E042
:1003D000922B089590E0FC013197E231F10508F08D
:1003E0004EC08827EE58FF4F8F4F0C94C60D80915A
:1003F00080008F7703C0809180008F7D8093800084
:10040000089580918000877FF9CF84B58F7702C0EF
:1004100084B58F7D84BD08958091B0008F7703C02F
:100420008091B0008F7D8093B000089580919000FE
:100430008F7707C0809190008F7D03C080919000DE
:10044000877F8093900008958091A0008F7707C0E8
:100450008091A0008F7D03C08091A000877F809352
:10046000A0000895809120018F7707C0809120011E
:100470008F7D03C080912001877F809320010895A4
:10048000CF93DF93282F30E0F901E651FE4F84919E
:10049000F901E655FD4FD491F901EC59FD4FC49196
:1004A000CC2391F081110E94EA01EC2FF0E0EE0FD5
:1004B000FF1FE053FE4FA591B491EC91ED2381E035
:1004C00090E021F480E002C080E090E0DF91CF91E5
:1004D00008951F93CF93DF93282F30E0F901E65161
:1004E000FE4F8491F901E655FD4FD491F901EC5985
:1004F000FD4FC491CC23C1F0162F81110E94EA0157
:10050000EC2FF0E0EE0FFF1FE05DFD4FA591B491E1
:100510009FB7F894111104C08C91D095D82302C0D4
:10052000EC91DE2BDC939FBFDF91CF911F9108955B
:100530001F93CF93DF93182FEB010E94AC012097FC
:1005400011F460E004C0CF3FD10539F461E0812FA0
:10055000DF91CF911F910C946902E12FF0E0E651F9
:10056000FE4FE4918E2F90E0FC013197E231F105CE
:1005700008F09DC08827EC57FF4F8F4F0C94C60D95
:1005800084B5806884BDC7BD97C084B5806284BDD2
:10059000C8BD92C080918000806880938000D09315
:1005A0008900C093880088C0809180008062809319
:1005B0008000D0938B00C0938A007EC08091800021
:1005C000886080938000D0938D00C0938C0074C0AD
:1005D0008091B00080688093B000C093B3006CC07D
:1005E0008091B00080628093B000C093B40064C07A
:1005F00080919000806880939000D0939900C09380
:1006000098005AC080919000806280939000D093AF
:100610009B00C0939A0050C08091900088608093A6
:100620009000D0939D00C0939C0046C08091A00094
:1006300080688093A0008091A0008F7B8093A000B1
:10064000D093A900C093A80037C08091A000806219
:100650008093A000D093AB00C093AA002DC08091DE
:10066000A00088608093A000D093AD00C093AC0040
:1006700023C080912001806880932001D0932901BC
:10068000C093280119C080912001806280932001CD
:10069000D0932B01C0932A010FC080912001886064
:1006A00080932001D0932D01C0932C0105C0C03848
:1006B000D1050CF04BCF45CFDF91CF911F9108951D
:1006C000FC01918D828D981761F0828DDF01A80F5A
:1006D000B11D5D968C91928D9F5F9F73928F90E07C
:1006E00008958FEF9FEF0895FC01918D828D9817EB
:1006F00031F0828DE80FF11D858D90E008958FEF28
:100700009FEF0895FC01918D228D892F90E0805CF0
:100710009F4F821B91098F73992708958DE292E074
:100720000E94820321E0892B09F420E0822F0895A2
:10073000FC01848DDF01A80FB11DA35ABF4F2C917E
:10074000848D90E001968F739927848FA689B7894D
:100750002C93A089B1898C9180648C93938D848D26
:10076000981306C00288F389E02D80818F7D8083F5
:100770000895EF92FF920F931F93CF93DF93EC01B5
:1007800081E0888F9B8D8C8D981305C0E889F9894D
:10079000808185FD24C0F62E0B8D10E00F5F1F4F6A
:1007A0000F731127E02E8C8DE8120CC00FB607FCDA
:1007B000FACFE889F989808185FFF5CFCE010E94C3
:1007C0009803F1CF8B8DFE01E80FF11DE35AFF4F27
:1007D000F0820B8FEA89FB898081806207C0EE89F5
:1007E000FF896083E889F98980818064808381E062
:1007F00090E0DF91CF911F910F91FF90EF900895BE
:10080000CF93DF93EC01888D8823C9F0EA89FB89B7
:10081000808185FD05C0A889B9898C9186FD0FC0AE
:100820000FB607FCF5CF808185FFF2CFA889B98983
:100830008C9185FFEDCFCE010E949803E7CFDF9129
:10084000CF91089580E090E0892B21F00E948E03E3
:10085000811125C080E090E0892B41F080E090E09C
:10086000892B21F00E94000081111CC080E090E0E3
:10087000892B41F080E090E0892B21F00E9400005C
:10088000811113C080E090E0892BA1F080E090E01E
:10089000892B81F00E94000081110AC008950E94F6
:1008A0000000D8CF0E940000E1CF0E940000EACFF4
:1008B0000C9400000895CF92DF92EF92FF920F9375
:1008C0001F93CF93DF936C017A018B01C0E0D0E0DE
:1008D000CE15DF0581F0D8016D918D01D601ED9126
:1008E000FC910190F081E02DC6011995892B11F042
:1008F0002196EECF7E01C701DF91CF911F910F911D
:10090000FF90EF90DF90CF9008950F931F93FC011D
:100910008FB7F8944091290250912A0260912B02DE
:1009200070912C028FBF04811581268137810115BA
:1009300011052105310529F44083518362837383B6
:1009400015C080819181A281B381481B590B6A0B2C
:100950007B0B401751076207730750F0800F911F00
:10096000A21FB31F80839183A283B38381E001C060
:1009700080E01F910F9108958F929F92AF92BF9246
:100980000F931F93CF93DF93CDB7DEB7A1970FB629
:10099000F894DEBF0FBECDBF19A2423008F44AE082
:1009A0008E010F5D1F4F842E912CA12CB12CA5011F
:1009B00094010E94850BE62FB901CA01015011096B
:1009C000EA3014F4E05D01C0E95CD801EC93232B1C
:1009D000242B252B61F70115110571F0F801019009
:1009E0000020E9F73197AF01401B510BB8018DE2B0
:1009F00092E00E945B0402C080E090E0A1960FB6F6
:100A0000F894DEBF0FBECDBFDF91CF911F910F9144
:100A1000BF90AF909F908F900895CF92DF92EF920A
:100A2000FF92CF93DF936B017C016DE28DE292E048
:100A30000E94B903EC0166277727CB016C197D0969
:100A40008E099F094AE00E94BC048C0F9D1FDF9114
:100A5000CF91FF90EF90DF90CF90089542E050E06B
:100A60006CE172E08DE292E00C945B04CF93DF9333
:100A700060E28DE292E00E94B903EC010E942E0533
:100A80008C0F9D1FDF91CF910895CF93DF93BC0111
:100A9000990F880B990B97FF03C00E940D0503C0A7
:100AA0004AE00E94BC04EC010E942E058C0F9D1FA1
:100AB000DF91CF910895BC01990F880B990B97FD99
:100AC0000C940D054AE00C94BC042F923F924F9277
:100AD0005F926F927F928F929F92AF92BF92CF92CE
:100AE000DF92EF92FF920F931F93CF93DF93CDB7D7
:100AF000DEB729970FB6F894DEBF0FBECDBF1C013D
:100B00006983598748870C831D832E833F8385E340
:100B10000E94400290930902809308020E944505BA
:100B20008A2D0E9440029B838A83809108029091C3
:100B30000902019709F0C4C088E30E94CB010FEFBE
:100B400013E0D801A81BB90B9D010E94CE0D2DE129
:100B5000822E25E0922EA12CB12CA50194010E9499
:100B6000850BAFEFB0E00E947A0B3FE1432E33E0FC
:100B7000532E612C712CA30192010E945B0BCA01C0
:100B8000B9010E94CD0C0E94950C709307026093EE
:100B90000602CB010E945B050E94360589E30E9494
:100BA000CB01D801A81BB90B9D010E94CE0DA50158
:100BB00094010E94850BAFEFB0E00E947A0BA30175
:100BC00092010E945B0BCA01B9010E94CD0C0E94E8
:100BD000950C7093050260930402CB010E945B05A3
:100BE0000E94360587E30E94CB01D801A81BB90BF0
:100BF0009D010E94CE0DA50194010E94850BAFEFCF
:100C0000B0E00E947A0BA30192010E945B0BCA0123
:100C1000B9010E94CD0C0E94950C70930302609361
:100C20000202CB010E94450584E30E9440028C0130
:100C3000909301028093000286E30E94CB019C0105
:100C4000DC010E94CE0DA50194010E94850B20932A
:100C500020023093210240932202509323028A8182
:100C60009B81892B39F4E885F9851182108260E037
:100C700070E023C08A819B81019711F5232B242BDF
:100C8000252B29F480910602909107020AC00130B9
:100C9000110519F48FEF90E004C0012B99F788E259
:100CA00090E090930B0280930A0260910A02709187
:100CB0000B02E885F9857183608389810E9498021F
:100CC0008091080290910902892B09F0DCC088E329
:100CD0000E94CB013C0184E30E9440028C0190936E
:100CE00001028093000286E30E94CB019C01DC019B
:100CF0000E94CE0D2DE135E040E050E00E94850BD2
:100D000049015A012093200230932102409322028C
:100D1000509323028A819B81892B39F4E885F985D8
:100D20001182108260E070E093C08A819B810197FC
:100D300009F0A9C06FEF73E066197709072E000C60
:100D4000880B990B0E94CB0C20E030E040EE50E481
:100D50000E94590D20E030EC4FE754E40E94230C30
:100D600020E030E040E85FE30E94B70B2C813D813A
:100D70004E815F810E94590DE885F985208131817E
:100D800081149104A104B10409F446C00130110595
:100D900011F5232B09F449C011821082C501B40159
:100DA0000E94CB0C20E030E040EE50E40E94590D50
:100DB00020E030EC47E454E40E94230C20E030E0D3
:100DC00040E85FE30E94B70B9B01AC01C701B6018D
:100DD0000E94230C32C0232B41F1E885F985118252
:100DE0001082C501B4010E94CB0C20E030E048EE37
:100DF00051E40E94590D20E030EC47E454E40E9495
:100E0000230C20E030E040E85FE30E94B70BA7012D
:100E100096010E94590D11C0232B39F0E885F98500
:100E200011821082C701B60108C020910A023091D8
:100E30000B02E885F985318320830E949C0CF10127
:100E40006483758386839783E885F98560817181E2
:100E5000898129960FB6F894DEBF0FBECDBFDF9112
:100E6000CF911F910F91FF90EF90DF90CF90BF90A7
:100E7000AF909F908F907F906F905F904F903F903A
:100E80002F900C94980229960FB6F894DEBF0FBEEF
:100E9000CDBFDF91CF911F910F91FF90EF90DF9029
:100EA000CF90BF90AF909F908F907F906F905F900A
:100EB0004F903F902F9008950E94DD0D1F920F924A
:100EC0000FB60F9211242F933F938F939F93AF935D
:100ED000BF938091290290912A02A0912B02B09198
:100EE0002C023091280223E0230F2D3720F40196A5
:100EF000A11DB11D05C026E8230F0296A11DB11D3D
:100F0000209328028093290290932A02A0932B0217
:100F1000B0932C028091240290912502A091260288
:100F2000B09127020196A11DB11D809324029093D8
:100F30002502A0932602B0932702BF91AF919F9103
:100F40008F913F912F910F900FBE0F901F9018958A
:100F50001F920F920FB60F9211240BB60F922F9380
:100F60003F934F935F936F937F938F939F93AF9331
:100F7000BF93EF93FF938DE292E00E949803FF915D
:100F8000EF91BF91AF919F918F917F916F915F9101
:100F90004F913F912F910F900BBE0F900FBE0F906E
:100FA0001F9018951F920F920FB60F9211240BB637
:100FB0000F922F938F939F93EF93FF93E0913D02B6
:100FC000F0913E028081E0914302F091440282FD63
:100FD00012C09081809146028F5F8F7320914702EB
:100FE000821751F0E0914602F0E0E35DFD4F958FEE
:100FF0008093460201C08081FF91EF919F918F9174
:101000002F910F900BBE0F900FBE0F901F90189551
:10101000EDE2F2E01382128288EE93E0A0E0B0E00D
:1010200084839583A683B78380E192E09183808354
:1010300085EC90E09587848784EC90E0978786879D
:1010400080EC90E0918B808B81EC90E0938B828B95
:1010500082EC90E0958B848B86EC90E0978B868B6E
:10106000118E128E138E148E80910A0290910B02B3
:1010700090935F0380935E0390935D0380935C0382
:1010800090935B0380935A03909359038093580382
:101090009093570380935603909355038093540382
:1010A0009093530380935203909351038093500382
:1010B00090934F0380934E0390934D0380934C0382
:1010C00090934B0380934A03909349038093480382
:1010D0009093470380934603909345038093440382
:1010E00090934303809342038AE090E0A0E0B0E055
:1010F00080933E0390933F03A0934003B09341033A
:101100008093360390933703A0933803B093390349
:1011100080932E0390932F03A0933003B093310359
:101120008093260390932703A0932803B093290369
:1011300080931E0390931F03A0932003B093210379
:101140008093160390931703A0931803B093190389
:1011500080930E0390930F03A0931003B093110399
:101160008093060390930703A0930803B0930903A9
:101170008093FE029093FF02A0930003B0930103BB
:101180008093F6029093F702A093F802B093F902CD
:101190008093EE029093EF02A093F002B093F102DD
:1011A0008093E6029093E702A093E802B093E902ED
:1011B0008093DE029093DF02A093E002B093E102FD
:1011C0008093D6029093D702A093D802B093D9020D
:1011D0008093CE029093CF02A093D002B093D1021D
:1011E0000895789484B5826084BD84B5816084BD9F
:1011F00085B5826085BD85B5816085BD80916E00B5
:10120000816080936E0010928100809181008260E5
:101210008093810080918100816080938100809122
:1012200080008160809380008091B1008460809311
:10123000B1008091B00081608093B00080919100F6
:1012400082608093910080919100816080939100F1
:10125000809190008160809390008091A1008260D5
:101260008093A1008091A10081608093A100809172
:10127000A00081608093A000809121018260809312
:1012800021018091210181608093210180912001C1
:1012900081608093200180917A00846080937A003D
:1012A00080917A00826080937A0080917A008160D8
:1012B00080937A0080917A00806880937A001092FF
:1012C000C100E0913D02F0913E0282E08083E09116
:1012D0003902F0913A021082E0913B02F0913C0217
:1012E0008FEC808310924502E0914102F09142021E
:1012F00086E08083E0913F02F0914002808180612E
:101300008083E0913F02F091400280818860808379
:10131000E0913F02F0914002808180688083E091FB
:101320003F02F091400280818F7D80838DE00E949A
:10133000AC018CE00E94AC018BE00E94AC018AE021
:101340000E94AC0189E00E94AC0188E00E94AC01DF
:1013500087E00E94AC0186E00E94AC0185E00E941B
:10136000AC0184E00E94AC0183E00E94AC0182E009
:101370000E94AC018CE20E94AC018DE20E94AC01A3
:101380008EE20E94AC018AE393E00E9485048130E2
:10139000A9F486E1A82EB12CC12CD12C97E5E92E19
:1013A00093E4F92E00E010E020E231E44EE553E052
:1013B0006DE070E08AE393E00E94650582E393E0CC
:1013C0000E9485048130A9F417E1A12EB12CC12C13
:1013D000D12C0CE5E02E03E4F02E00E010E020E23A
:1013E00031E44CE553E06CE070E082E393E00E946E
:1013F00065058AE293E00E9485048130A9F4A8E1A2
:10140000AA2EB12CC12CD12CB1E6EB2EB3E4FB2ECD
:1014100000E010E020E231E44AE553E06BE070E0E8
:101420008AE293E00E94650582E293E00E948504CF
:101430008130A9F4E9E1AE2EB12CC12CD12CFAEF08
:10144000EF2EF2E4FF2E00E010E020E231E448E568
:1014500053E06AE070E082E293E00E9465058AE171
:1014600093E00E9485048130A9F46AE1A62EB12C94
:10147000C12CD12C72E0E72E73E4F72E00E010E0CF
:1014800020E231E446E553E069E070E08AE193E070
:101490000E94650582E193E00E9485048130A9F4F1
:1014A0004BE1A42EB12CC12CD12C57E0E52E53E4F6
:1014B000F52E00E010E020E231E444E553E068E07E
:1014C00070E082E193E00E9465058AE093E00E946B
:1014D00085048130A9F42CE1A22EB12CC12CD12C91
:1014E00031E1E32E33E4F32E00E010E020E231E4BA
:1014F00042E553E067E070E08AE093E00E94650512
:1015000082E093E00E9485048130A9F48DE1A82E49
:10151000B12CC12CD12C96E1E92E93E4F92E00E0F8
:1015200010E020E231E440E553E066E070E082E064
:1015300093E00E9465058AEF92E00E948504813065
:10154000A9F41EE1A12EB12CC12CD12C0BE1E02E6F
:1015500003E4F02E00E010E020E231E44EE453E03A
:1015600065E070E08AEF92E00E94650582EF92E00C
:101570000E9485048130A9F4AFE1AA2EB12CC12CC0
:10158000D12CBEEBEB2EB2E4FB2E00E010E020E20B
:1015900031E44CE453E064E070E082EF92E00E94BA
:1015A00065058AEE92E00E9485048130A9F4E0E2AC
:1015B000AE2EB12CC12CD12CF8ECEF2EF2E4FF2E84
:1015C00000E010E020E231E44AE453E063E070E040
:1015D0008AEE92E00E94650582EE92E00E94850408
:1015E0008130A9F461E2A62EB12CC12CD12C72ED70
:1015F000E72E72E4F72E00E010E020E231E448E448
:1016000053E062E070E082EE92E00E9465058AEDB0
:1016100092E00E9485048130A9F442E2A42EB12C0C
:10162000C12CD12C5AEAE52E52E4F52E00E010E050
:1016300020E231E446E453E06CE270E08AED92E0AF
:101640000E94650582ED92E00E9485048130A9F434
:1016500023E2A22EB12CC12CD12C34EBE32E32E4A8
:10166000F32E00E010E020E231E444E453E06DE2C8
:1016700070E082ED92E00E9465058AEC92E00E94A3
:1016800085048130A9F484E2A82EB12CC12CD12C80
:101690009EEBE92E92E4F92E00E010E020E231E426
:1016A00042E453E06EE270E08AEC92E00E9465054D
:1016B0000E94220468CE052E97FB1EF400940E941F
:1016C000720B57FD07D00E94850B07FC03D04EF428
:1016D0000C94720B50954095309521953F4F4F4F8C
:1016E0005F4F089590958095709561957F4F8F4FCE
:1016F0009F4F08950E94A70BA59F900DB49F900D3A
:10170000A49F800D911D11240895A1E21A2EAA1BF9
:10171000BB1BFD010DC0AA1FBB1FEE1FFF1FA217A1
:10172000B307E407F50720F0A21BB30BE40BF50B9E
:10173000661F771F881F991F1A9469F76095709527
:10174000809590959B01AC01BD01CF010895A29FAA
:10175000B001B39FC001A39F700D811D1124911D85
:10176000B29F700D811D1124911D08955058BB2703
:10177000AA270E94CE0B0C941F0D0E94110D38F069
:101780000E94180D20F039F49F3F19F426F40C94B0
:101790000E0D0EF4E095E7FB0C94080DE92F0E9466
:1017A000300D58F3BA17620773078407950720F0C6
:1017B00079F4A6F50C94520D0EF4E0950B2EBA2F89
:1017C000A02D0B01B90190010C01CA01A001112447
:1017D000FF27591B99F0593F50F4503E68F11A16F3
:1017E000F040A22F232F342F4427585FF3CF469584
:1017F00037952795A795F0405395C9F77EF41F16A6
:10180000BA0B620B730B840BBAF09150A1F0FF0F6F
:10181000BB1F661F771F881FC2F70EC0BA0F621F5B
:10182000731F841F48F4879577956795B795F7954B
:101830009E3F08F0B0CF9395880F08F09927EE0FE0
:101840009795879508950E94370C0C941F0D0E9460
:10185000180D58F00E94110D40F029F45F3F29F057
:101860000C94080D51110C94530D0C940E0D0E9404
:10187000300D68F39923B1F3552391F3951B550B64
:10188000BB27AA2762177307840738F09F5F5F4F53
:10189000220F331F441FAA1FA9F335D00E2E3AF092
:1018A000E0E832D091505040E695001CCAF72BD0AA
:1018B000FE2F29D0660F771F881FBB1F26173707FB
:1018C0004807AB07B0E809F0BB0B802DBF01FF272D
:1018D00093585F4F3AF09E3F510578F00C94080DF5
:1018E0000C94530D5F3FE4F3983ED4F386957795BF
:1018F0006795B795F7959F5FC9F7880F911D9695E6
:10190000879597F90895E1E0660F771F881FBB1F41
:10191000621773078407BA0720F0621B730B840BEE
:10192000BA0BEE1F88F7E09508950E949C0C68940E
:10193000B1110C94530D08950E94380D88F09F57F3
:1019400098F0B92F9927B751B0F0E1F0660F771FE3
:10195000881F991F1AF0BA95C9F714C0B13091F0D9
:101960000E94520DB1E008950C94520D672F782F0C
:101970008827B85F39F0B93FCCF38695779567959E
:10198000B395D9F73EF490958095709561957F4F0A
:101990008F4F9F4F0895E89409C097FB3EF49095B0
:1019A0008095709561957F4F8F4F9F4F9923A9F038
:1019B000F92F96E9BB279395F695879577956795C7
:1019C000B795F111F8CFFAF4BB0F11F460FF1BC00B
:1019D0006F5F7F4F8F4F9F4F16C0882311F096E99E
:1019E00011C0772321F09EE8872F762F05C066234C
:1019F00071F096E8862F70E060E02AF09A95660F05
:101A0000771F881FDAF7880F9695879597F90895BD
:101A100097F99F6780E870E060E008959FEF80ECA1
:101A2000089500240A941616170618060906089544
:101A300000240A9412161306140605060895092EAA
:101A40000394000C11F4882352F0BB0F40F4BF2B19
:101A500011F460FF04C06F5F7F4F8F4F9F4F089559
:101A600057FD9058440F551F59F05F3F71F047954F
:101A7000880F97FB991F61F09F3F79F08795089534
:101A8000121613061406551FF2CF4695F1DF08C053
:101A9000161617061806991FF1CF86957105610570
:101AA00008940895E894BB2766277727CB0197F918
:101AB00008950E946C0D0C941F0D0E94110D38F0BA
:101AC0000E94180D20F0952311F00C94080D0C9431
:101AD0000E0D11240C94530D0E94300D70F3959F40
:101AE000C1F3950F50E0551F629FF001729FBB2715
:101AF000F00DB11D639FAA27F00DB11DAA1F649FB1
:101B00006627B00DA11D661F829F2227B00DA11D63
:101B1000621F739FB00DA11D621F839FA00D611DE9
:101B2000221F749F3327A00D611D231F849F600D0A
:101B3000211D822F762F6A2F11249F5750409AF033
:101B4000F1F088234AF0EE0FFF1FBB1F661F771FBF
:101B5000881F91505040A9F79E3F510580F00C948A
:101B6000080D0C94530D5F3FE4F3983ED4F3869533
:101B700077956795B795F795E7959F5FC1F7FE2B2A
:101B8000880F911D9695879597F90895EE0FFF1F81
:101B9000881F8BBF0790F691E02D19940E94A70B28
:101BA000332312F48A1B9B0B0C94D80D0E94A70BB5
:101BB000B7FF0895821B930B089581E090E0F8949D
:081BC0000C94E20DF894FFCF34
:101BC8000100FF00FF00FF000100FF00000000000F
:101BD800B9035B0482036003740300040D0A000068
:00000001FF
